:020000041000EA
:1000000000B5324B212058609868022188439860DF
:10001000D860186158612E4B002199600221596106
:100020000121F02299502B49196001219960352056
:1000300000F044F80222904214D00621196600F024
:1000400034F8196E01211966002018661A6600F04E
:100050002CF8196E196E196E052000F02FF8012189
:100060000842F9D1002199601B49196000215960AB
:100070001A491B48016001219960EB211966A021F2
:10008000196600F012F800219960164914480160C1
:100090000121996001BC002800D000471248134993
:1000A000086003C880F30888084703B5996A0420EC
:1000B0000142FBD001200142F8D103BD02B5186610
:1000C0001866FFF7F2FF186E186E02BD00000240BE
:1000D000000000180000070000035F00212200005C
:1000E000F4000018222000A00001001008ED00E03C
:1000F00000000000000000000000000074B24E7A12
:1001000000200420F7010010CB010010CD010010E9
:10011000C9010010C9010010C9010010C901001077
:10012000C9010010C9010010C9010010CF01001061
:10013000C9010010C9010010D1010010D301001045
:10014000C1010010C1010010C1010010C101001067
:10015000C1010010C1010010C1010010C101001057
:10016000C1010010C1010010C1010010C101001047
:10017000C1010010C1010010C1010010C101001037
:10018000C1010010C1010010C1010010C101001027
:10019000C1010010C1010010C1010010C101001017
:1001A000C1010010C1010010C1010010C101001007
:1001B000C1010010C1010010C1010010C1010010F7
:1001C000EFF30580103800BE00BE00BE00BE00BECA
:1001D00000BE00BEF2EB887134850010548500101B
:1001E0003802001090A31AE71E481F49086006C88D
:1001F00081F3088810471D480068002801D019487D
:10020000F3E70DA40ECC002902D000F012F8F9E7B4
:100210001749184A002000E001C19142FCD116495B
:100220008847164988471649884700BEFDE701C937
:1002300001C29A42FBD3704754850010C0000020D1
:1002400090190020249E00100000042000000420CB
:10025000249E001000100420001004200000000064
:10026000704700000000000008ED00E0000000D032
:1002700090190020CC2800207D3F001021030010A1
:10028000753F0010F8B5C0460448054B10B58342D1
:1002900003D0044B002B00D0984710BD90190020CC
:1002A000901900200000000006480749091A8B1029
:1002B000C90FC91810B5491003D0044B002B00D04A
:1002C000984710BD901900209019002000000000F0
:1002D00010B5074C2378002B09D1FFF7D5FF054B4C
:1002E000002B02D0044800E000BF0123237010BDA2
:1002F000181B0020000000008C7C0010054B10B57E
:10030000002B03D00449054800E000BFFFF7CCFFF5
:1003100010BDC046000000001C1B00208C7C00109B
:10032000F0B5DE464E4645465746E0B58BB003F085
:1003300099FF854BD0259B461C0001262D0667683A
:10034000380000F03FF93300BB40A768AB613800CC
:100350006B6200F037F93300BB40E768AB613800EF
:100360006B6200F02FF93300BB400022AB6200212A
:10037000380000F00DF9754B1434A342DFD104F0BE
:10038000EBFA0990002807D1642000F093FF04F0F5
:10039000E3FA09900028F7D0FA2000F08BFF6C48B0
:1003A00003F0B0FF6B4803F0ADFF6B4803F0AAFF0A
:1003B0006A4B02261800994603F0A4FF0023069317
:1003C000039301330A2403259A463300D0272E00D5
:1003D00025005C469B463F062368A17C9846227C0C
:1003E000637C5F480091414604F016F85D4803F0D5
:1003F00089FF5D4803F086FF5A46534693400593B4
:100400005346B34004935346AB4008930023A3469E
:100410001D00029302222A4016005446731E9E417C
:100420000792059BF6B22C40002A58D07B61049BB2
:10043000002C52D07B610A20002100F029FF079B8D
:10044000002B37D008987A68534602405146501E18
:1004500082411B1B1940D0B28A4235D0434A0090DA
:10046000019231002200424803F0D6FF029B013383
:1004700002930135042DCDD1059B5C46BB61049BE5
:10048000BB61029B002B2CD0384A4146394803F00F
:10049000C3FF029A069B944663440693039B14345D
:1004A00001330393294B9C4224D06368A6689B4682
:1004B000E56891E708987A6809990240501E8241E0
:1004C0000123D0B28A42C9D12B4A00910192310056
:1004D0002200274803F0A0FFCBE7BB61ABE7BB617D
:1004E000A5E74146244A234803F096FF174B1434EE
:1004F0009C42DAD1164803F005FF204803F002FFC2
:10050000484603F0FFFE0421039B1D48C91A03F06F
:1005100083FF1021069C1B48091B03F07DFF134934
:10052000002C00D11449184803F076FF484603F028
:10053000E9FE164B1B68986806F06AFCFA208000FA
:1005400000F0B8FEFAE7C0467C7E0010CC7E0010BA
:10055000A07C0010D47C0010F87C0010107D0010EE
:10056000447D0010707D0010947D0010907C001080
:10057000247E00104C7E0010987C0010BC7D001082
:10058000CC7D0010EC7D00100C7E00104811002086
:100590000B4B80009C46604400290ED1002304319F
:1005A000002A00D119008022036852015940944664
:1005B0000C2360440B40036070470C210823EFE7D5
:1005C00004C001400123D0228340402112069362DF
:1005D0009361094A83009A181268C0005140C022F2
:1005E0000A4006498C4663441A60054B9C46052325
:1005F000604443607047C04604C0014004D00140DD
:10060000004001408023DB051868000F7047C0469A
:100610000FB400B5084883B003F074FE049B002BB0
:1006200007D005A91800019103F044FC034803F02A
:1006300069FE012003F056FCCC7E0010087E0010FD
:10064000F8B5EFF3108772B60E4E3368002BFCD06E
:10065000BFF35F8FCB08C4180725A446C45C0123F1
:100660000D40AB4018002040234208D1624623438E
:100670001370BFF35F8F306087F31088F8BD1000F0
:10068000FFF7C6FF2C0100D0F8B5CE4647468C4692
:1006900080B5EFF3108872B6214D2C68002CFCD089
:1006A000BFF35F8F9A422CD8D4080721055D061945
:1006B000012411408C402C421FD007218946063965
:1006C00009E0D408055D06194C460F001440A74008
:1006D0003C002F4211D001329342F2D2012040421D
:1006E000BFF35F8F00220E4B1A6088F3108800283A
:1006F0000FDB0CBC90469946F8BD2C4310003470BB
:10070000EEE7BFF35F8F00232B6088F31088012092
:1007100040426346002BECD00898FFF779FFC046B3
:100720002C0100D0044A1078431CDBB2172B00D9EF
:10073000102313707047C0468810002000B5054B89
:1007400083B00100009318221F230348FFF79CFF8A
:1007500003B000BDDC7E0010482100200021044BC6
:10076000044ABFF35F8F02C39342FAD17047C04679
:10077000000100D0800100D0054B064A1360064AF4
:10078000136053609360D36013615361936170474A
:100790008080808000E400E004E400E01F23184033
:1007A0001E3B8340002905D0C021044A4900535014
:1007B00013607047802201498B50FAE700E100E0A6
:1007C00001228240034B1B681340581E8341D8B25C
:1007D0007047C04600E100E001238340014A1360F6
:1007E0007047C04600E200E0064B10309B68800076
:1007F000C358054A00209B1A2F229A424041C0B29A
:100800007047C04600ED00E08C10002070B50D0070
:10081000EFF3108672B60F4A1368002BFCD0BFF3BB
:100820005F8F0D4B10309B6884001B590B4A93421D
:1008300003D09D4201D001F019F8074B9B681D5170
:10084000BFF35F8FBFF35F8F0022024B1A6086F306
:10085000108870BD240100D000ED00E0C10100103F
:10086000F0B557464E464546DE46E0B5894683B06C
:1008700005001700EFF3108A72B65E4A1368002B6A
:10088000FCD0BFF35F8F00205B4B18569B460028BF
:1008900000DA6CE05A464400584E2418A40033197C
:1008A00098469B7910351370554BAA009B680192AE
:1008B0009B589C469B1B2F2B28D8012261469143B5
:1008C000CB79BB4208D86AE053009B189B00F31811
:1008D000DD79BD4251D9190006228A56002AF3DA81
:1008E0000B1D9B46474E43465C46043B1B1B1B05AA
:1008F000454C5B0D23438B80887141468A714A4683
:10090000424B8E800B60CF718A601BE0404B9C4550
:1009100042D142463F4B023413803F4B3619043BD1
:100920009E1B3605384B760D1E433C4B56809380FC
:10093000FF23D771937143464A469A60012342468A
:100940001A43944661462E4B019A9B689950BFF317
:100950005F8FBFF35F8F0022264B1A608AF31088E7
:1009600003B03CBC90469946A246AB46F0BD00F0B1
:100970007DFF5B46002018568CE70B1D9B468B883D
:1009800004345B051B155B4436199E1BE0233605BA
:10099000760D1B021E43A6E700F068FFB9E7454647
:1009A0000B001F489B1B5B415843000D194B2B80CC
:1009B000A31C9C46B4446546174B0434043B5B1BA4
:1009C0001B05114D5B0DAC462B43454636196B801C
:1009D0000B1F9E1B6346A87148463605760D1E43C5
:1009E0000A4BAE80EF71A8600B60434613439C46F0
:1009F000A8E7C046240100D0012600208C1000206A
:100A000000ED00E001BD000000E0FFFF014880476D
:100A1000C101001000A1FFFFBC10002001BDFFFFBD
:100A2000AAAA0000F0B501240443EFF30581EFF317
:100A3000108672B6214A1368002BFCD0BFF35F8F7B
:100A40001F4B05001F4AED1A6D416A43120D1E4DE2
:100A50008900AF6852B27F58A7421CD00621595670
:100A600091421CD012215956914222D01E21595632
:100A7000914220D02A2159560324914210D0134B81
:100A800019781A708171BFF35F8F00220B4B1A60C7
:100A900086F31088F0BDAB680D4C5C50EFE7002486
:100AA0006100091989005B18FF2199710949998032
:100AB000E5E70124F4E70224F2E7C046240100D070
:100AC0008C100020AAAA000000ED00E00126002002
:100AD000C101001001BDFFFF00B5074B83B001004D
:100AE0000093002205230548FFF7CEFD002801DB17
:100AF0001F23181A03B000BDF87E00100526002041
:100B0000024B9C46614489000160704740000034FC
:100B1000F8B5134D134E2C00FF27B5421ED22368A3
:100B2000002B0FD0FFF7FEFD01002800FFF7E8FFC4
:100B3000A780BFF35F8F0834B4420FD2236825002B
:100B4000002BEFD1FFF7EEFD01002800FFF7D8FFE3
:100B50002771BFF35F8F0834B442EFD3F8BDC046AE
:100B6000881900209019002010B50400FFF7DAFD65
:100B700001002000FFF7C4FFFF232371BFF35F8F45
:100B800010BDC04610B504000120FFF7D7FD034B90
:100B9000C3189B002360BFF35F8F10BD400000347B
:100BA000034B9C46614489000160BFF35F8F70472F
:100BB000400000340A4B1968EFF3108072B60A68DF
:100BC000002AFCD0BFF35F8F1B68BFF35F8F00224A
:100BD0001A6080F3108840BF002000217047C04693
:100BE000E0250020F0B5DE4657464E464546E0B5C6
:100BF00085B0EFF30582032313409A00110003929E
:100C0000B64A5258904601229A409146B44B1A6017
:100C10004B46B4484363434608229B5E9A46002BEA
:100C20003EDA43469B881BB2002B00DBA2E0434622
:100C30009B79002B00D0F4E0434608241C5F002C75
:100C400024DB42465269630094461B19DB0063446F
:100C50009C68DD68631C00D110E1A248039B8446B8
:100C60006344826A19001B69A61A9B1A9E4215D317
:100C70004A46036A1A4211D09A4800F0BDFB241A72
:100C80008D41002D02DCC3D1002CC1D040BF05B086
:100C90003CBC90469946A246AB46F0BD0C61EBE7E2
:100CA000424652695B0093465344DB009B445B46DB
:100CB0009E68DF6800F0A0FB801BB9410029B0DB13
:100CC000002F00DAE5E05B46874A1B69934200D1BA
:100CD000D8E041465A460820085E52880004104376
:100CE0005A465169984704000D0023002B4300D158
:100CF000CFE0002D00DBE8E0361BAF4134003D00C3
:100D00005B469C60DD600021595E002900DA88E7BF
:100D100043465B6922009C462B0048004018C000F7
:100D200060448668C768921BBB41002B00DA78E7F5
:100D30004346664602000094019519810CE07B0051
:100D4000DB19DB00F318009801999C68DD68001B33
:100D5000A941002904DB1A000023D75E002FEEDA38
:100D60005B461F805346138043469B881BB2002B73
:100D700000DA5CE743461A69EFF3108172B6136834
:100D8000002BFCD0BFF35F8F43469B8842461BB2CB
:100D90009A4601235B4293801369BFF35F8F002261
:100DA0001A6081F310885346002B00DA3FE7434670
:100DB0005B699C46082343449B4653465F00434679
:100DC0005744FF0008229A5E67445E46BC68FD688F
:100DD000002A19DB3B000094019567469C4604E01D
:100DE0001E000023F25E002A0BDB009801995300DD
:100DF0009B18DB00FB189C68DD68001BA9410029DB
:100E0000EEDA6346BC461F005346338000217B5E0A
:100E10003A809A46002BD0DA43469B79002B00D1CA
:100E20000AE7002342469371434646460821595E2D
:100E300008364B1C00D129E747468C46556902E02D
:100E400006004B1C17D04B005B18DB00E8180A00AB
:100E5000E95E43881BB2002BF2DA01235B42DC1708
:100E60008360C4609445ECD031803B899446038014
:100E70003A814B1CE7D1B8466446E0E66B1C00D0D3
:100E8000EBE6F9E65B465C69200023699847002899
:100E900021D15B4642461B8813811269EFF3108310
:100EA00072B611680029FCD0BFF35F8F42465946E5
:100EB00052880A804246514651801269BFF35F8FC3
:100EC0000021116083F31088ABE6064800F094FA25
:100ED00024184D4114E76568246806E7C4250020FE
:100EE0003C70054000400540E50B001070B52E4CED
:100EF0002569002D04D00A212C48FFF701FE70BDA2
:100F00002B4E0321300000F06DFAE660FFF70AFC7B
:100F1000284B03229C46D02322701B061B6801210C
:100F20006370254B6044A3600F2380002061022082
:100F3000638063694942A180198002311986473173
:100F40001D83585218315A5275325C3999521832F1
:100F500001319952183201319952183201319952A6
:100F6000083518329D520231183299521832013127
:100F7000995218320131995218320131995218326E
:100F8000013199521832013199520C4B0C49DC60F5
:100F900001303562FFF73AFC01210320FFF7FEFB29
:100FA000084B1D60A7E7C046D4100020E0250020B4
:100FB0000040054040000034FFFF1000C425002021
:100FC000E50B00103860054000487047D410002041
:100FD000F8B51F0008AB1B7804001600002B07D1E2
:100FE00000F012FA32003B00121A8B41002B4CDB4E
:100FF0002269EFF3108072B61368002BFCD0BFF3A8
:101000005F8F62690223E15E94464B005B18DB0050
:101010006344002901DB1A8862802269BFF35F8F75
:101020000025156080F31088002930DB069A9E6049
:10103000DF601A61079A5A615A8801325204520CD1
:10104000151C002A1FD0A8B20A045D801043256930
:10105000EFF3108672B62A68002AFCD0BFF35F8FC8
:10106000A2881A80A1802369BFF35F8F00221A60D3
:1010700086F31088074923788C4601329A40E3684A
:1010800063441A60F8BD0125DDE70020FAE701207E
:101090004042F7E73C200000F0B501000469EFF39F
:1010A000108772B620680028FCD0BFF35F8F022043
:1010B0000D5E48696C0084466419E4006444002DA8
:1010C00001DB208848800869BFF35F8F0026066037
:1010D00087F31088002D2EDBE360638805980133C9
:1010E00020615B0406985B0CA26060611A1C002BF7
:1010F0001FD090B22B04628018430A69EFF3108668
:1011000072B61368002BFCD0BFF35F8F8B882380EF
:101110008D800B69BFF35F8F00221A6086F3108801
:101120000B7801329A40CB6804498C4663441A60BC
:10113000F0BD0122DDE701204042F9E73C2000003C
:1011400030B543890A14934233DD53009B1842693A
:10115000DB00944604696344EFF3108572B622689D
:10116000002AFCD0BFF35F8F5A88090494B2090C9F
:101170008A4208D00369BFF35F8F00221A6085F3AB
:101180001088002030BD8022120214435C800123AD
:1011900002698371BFF35F8F0021116085F31088AE
:1011A000054902788C469340C2680120624413606E
:1011B000E8E70020E6E7C0463C20000040787047A2
:1011C000F0B504000D0006267642F717C64636191C
:1011D0006F4100B582B08F4214D811D000F014F9DD
:1011E00032003B00121A8B41002B15DC002B44D03F
:1011F0002000290000F03CF902B004BC9046F0BD8C
:101200008642EBD90026002700F0FEF832003B00B2
:10121000121A8B41002BE9DD00F0F6F832003B009A
:10122000121A8B41002B0ADB00230193144B32006E
:10123000009314483B00FFF72FFF0028D8DBB0468F
:101240000026BC46104A114F7B6A9C4504D8B96AF7
:101250008845CDD99C45CBD11168EFF3108072B68B
:101260000B68002BFCD0BFF35F8F1368BFF35F8F59
:101270001E6080F3108820BFE6E7002AB8D0CBE7D5
:10128000B50B0010D4100020E025002000400540E0
:1012900070B504000D0000F0B7F80019694100298D
:1012A00002DBFFF78DFF70BD012001494042F8E7E6
:1012B000FFFFFF7F70B5060000F0A6F8FA220400D9
:1012C0000D00002330000021920001F05BFA0019AC
:1012D0006941002902DBFFF773FF70BD012001495E
:1012E0004042F8E7FFFFFF7FF0B5CE46474680B5A6
:1012F00004000D0083B0EFF30587002F0DD0364AB0
:101300000020536A8B4203D3926A0130A24250D329
:1013100003B00CBC90469946F0BD304B9846DB6854
:101320009946434648461E7800F066F80B00494649
:1013300002000436B600715820008E1A2900801A67
:1013400099418F4211DC0ED020BF234A0020536AFE
:10135000AB42DDD3926A0130A242D9D2EB1A581EB9
:101360008341D8B2D4E78642EED900F04DF822008E
:101370002B00121A8B41002B20DB00230193184B0A
:101380002200009340462B00FFF786FE011E15DD6C
:10139000114B2E005A6A95421CD89B6AA34217D360
:1013A0004046FFF7CDFE0C4A0020536A9E42AFD85C
:1013B000D0E75B1A581E8341D8B2A9E7064A00203D
:1013C000536AAB42A4D3926A0120A242A0D2C5E7DD
:1013D0009542E5D120BFE3E700400540D41000204E
:1013E000B50B001010B5024A0248FFF729F910BDED
:1013F000207F00104C2100200300416A0A00986AF7
:10140000596A8A42FAD17047034B596A0A00986AAE
:10141000596A9142FAD170470040054070B5040006
:101420000D00124A536A1900966A536A8B42FAD128
:101430003000190024184D41AB4211D80ED02B00BA
:101440000A494A6A9A42FCD307D1084A02E0516A23
:10145000994202D1916AA142F9D370BDA642EED958
:10146000012301246442E5175B42E9E7004005409F
:10147000064A536A9942FCD807D1044B02E05A6AE3
:10148000914202D19A6A8242F9D3704700400540E6
:10149000F8B54E464546DE465746E0B58846050057
:1014A0000A991800160000F035FB0A9B6C001F0219
:1014B000324B64199C46A4006444636881469F4291
:1014C00000D967602B1FDBB29A46012B30D9C023AD
:1014D00080229B01E31812011A60294BAD00595973
:1014E0009B4600291BD1226876017240E0268023AA
:1014F000164052465B01E3181E60012A30D9802352
:1015000080229B01E31812011A605B464A4667601D
:101510005A513CBC90469946A246AB46F8BD586924
:1015200000F0F8FA431C5800C0180338FDD2DAE77F
:101530004346012BCBD1C02303229B01E3181A6041
:10154000023AA3681A42FCD0226876015640E02293
:10155000802316400A4A5B019346E3181E60AD00E3
:1015600042462168514003220A401A600123424644
:101570009340A2681342FCD0C1E7C04600800040FF
:1015800050210020F0B546469846354B4F469C46C4
:10159000D64644002418A40064446368C0B50F0014
:1015A0001600FF2B02D880235B006360031FDBB2B1
:1015B0009946012B31D9C02380229B01E3181201E7
:1015C0001A60284B850059599A4600291CD1226877
:1015D00076017240E026802316404A465B01E318FC
:1015E0001E60012A30D9802380229B01E31812015A
:1015F0001A6080235B004246636053465A511CBC0C
:1016000090469946A246F0BD586900F083FA431C03
:101610005800C0180338FDD2D9E7012FCBD1C02321
:1016200003229B01E3181A60023AA3681A42FCD015
:10163000226876015640E02280231640094A5B0169
:101640009246E3181E6085000322216879400A4013
:101650001A600123BB40A2681342FCD0C3E7C04616
:101660000080004050210020014B8000C05870478E
:1016700050210020F8B50400204817001D000E007E
:1016800000F048FA0100380000F044FA069A2B04F2
:10169000120313432268002A1FDB194AA218514281
:1016A0004A41802149018C4652420A401549624410
:1016B0000A6015490A60154917000D68AF43FBD150
:1016C000134A2660A1182122A0600A602268002A1D
:1016D000FCDAE36008230B60F8BD3F2221680A4072
:1016E000B242DAD1A2681205120D8242D5D1EE21A2
:1016F000E268C9020A409A42CFD1EDE7001BB70069
:101700000040FDBF00E0004000F0004008C0004085
:101710000430000010B5140080221B4BD2051A6063
:1017200000281AD00123194A1843194BDA61194AC3
:1017300042401A62596298628022134BD2051A60A5
:101740001549164A1160E022D2041A60002C07D114
:101750008022134B12061A6010BD0D4BD861EBE7C7
:1017600080236201121B9200121912015B049A423B
:1017700000D30C4A0C4B1A60054B5A608022084B70
:10178000D2051A60E8E7C04600B00540D3C007B0F4
:10179000008005402D3FF84FFCFF0100082001406C
:1017A00000A00540FFFFFF00B42500208023024A6F
:1017B0009B000B43D362704700800540142310B593
:1017C0000100188804331B88984710BD162310B5F4
:1017D0000100188802331B88984710BDF0B5C64633
:1017E00000B5002916D014230400012598461827B7
:1017F000890046184346216818883B88984701C4E9
:10180000431E984140420540A642F3D1280004BC43
:101810009046F0BD0125F9E7142370B5040018883F
:1018200004331B880D000549984703000020002C55
:1018300001DB0130A04029009847C0465542000016
:10184000AA23064A1B0113608D235B00D360044961
:10185000044B19605368002BFCDA704700400240CB
:1018600000B0FA00006002407047C04610B5014861
:10187000FEF7CEFE447F001070B5074B074C9C422C
:1018800009D2013B1D1BAD080135AD002D1908CC57
:101890009847AC42FBD170BD847C0010487C00109E
:1018A000054B064A06491A60064A074B1A601000A3
:1018B0000B689843FBD1704700E00040BFCDFBFEB2
:1018C00008C00040FE7F3C0000F00040044BDB6C91
:1018D000002B03D18022034BD2021A607047C0460E
:1018E000000011504C201150044A054B1A60054A63
:1018F0001368DB018033FBD17047C046FFFFFF0157
:1019000000F0004008C000404022034B9A675A672D
:101910001A67DA667047C04600F0014010B5FEF75E
:101920001DFF10BD70B52849284C294D641AA6101A
:101930003200302E00D930222800920000F092FFB1
:101940002F2E3BD830202F212B195B07214A801BDB
:10195000DB0F891B052916D9002B32D0B1006A5044
:10196000741CC01AF3189B004108EB18C900C91871
:101970001A605A6008338B42FAD10123010099435F
:10198000661888421AD0B300EA50731C2F2E15D067
:101990009B00EA50B31C2E2E10D09B00EA50F31C83
:1019A0002D2E0BD09B00EA50331D2C2E06D09B0011
:1019B000EA50731D2B2E01D09B00EA50064B9D6010
:1019C00070BD3400CDE7C04600010010C00100101A
:1019D00000000020C101001000ED00E0002310B560
:1019E000294C82B0A367FFF72BFF0122274B1A6017
:1019F000636C012BFCD10322254B1A60224A936BA6
:101A0000012BFCD1013300930121224A22480433E7
:101A1000FFF730FE052301210093204A2048FFF7FD
:101A200029FE0022022104201E4BFFF7ABFD0022FD
:101A3000012105201C4BFFF7A5FD002200210720F6
:101A40001A4BFFF79FFD002200210820174BFFF7DC
:101A500099FD8023DB000093002200210920134B15
:101A6000FFF716FD0022104B00210620FFF78AFD2C
:101A70000420FFF7F9FD0E4900F04CF801000020AA
:101A8000FFF794FE02B010BD008000403CB0004063
:101A900030B00040002F685900800240008C86471B
:101AA00000C00240001BB70040597307006CDC0205
:101AB00040420F0001480421014B1847F01000205C
:101AC000DD170010124A936F9B0815D29066D166FD
:101AD000002905D0FFE7FFE7FFE7516F106F704760
:101AE00004B580210906C2175140002800D0C84320
:101AF00006F06AF8002104BDF0B5146E556E576FFC
:101B0000166FFFF7E3FF1466556657671667F0BD5B
:101B1000000000D0114A936F9B0813D210665166E3
:101B2000002905D0FFE7FFE7FFE7516F106F70470F
:101B300004B5002801D00020C04306F045F800217C
:101B400004BDC046F0B5146E556E576F166FFFF7A3
:101B5000E5FF1466556657671667F0BD000000D0B4
:101B600094464A4A926F9208624601D228E0C046E3
:101B7000F0B5464E346E756E776F366F00F020F814
:101B80009446424A14665566576716676246F0BD2A
:101B900094463E4A926F9208624601D254E0C04693
:101BA000F0B53A4E346E756E776F366F00F04CF8C4
:101BB0009446364A14665566576716676246F0BD06
:101BC000002B24DB11D000293EDA00B5C943404286
:101BD00000D1013100F038F8C943404200D1013151
:101BE000DB43524200D1013300BD002AEBD1002873
:101BF00001D1002905D00020C90FC90701D1C04378
:101C0000410800B505F0C8FF0022002300BD00B563
:101C100000290ADBDB43524200D1013300F014F803
:101C2000C943404200D1013100BDC943404200D107
:101C30000131DB43524200D1013300F005F8DB43B0
:101C4000524200D1013300BD002923D1002B18D10D
:101C5000002A0CD0BC460D4F38667A66002100235E
:101C6000FFE7FFE7FFE77A6F386F674670470028A6
:101C700001D00748010000B505F08EFF00220023C7
:101C800000BD02000B00002000217047000000D0C2
:101C9000FFFFFFFF002B00D0BFE0130C28D1002A6C
:101CA000E7D080B4114F39667A66FFE7FFE730B4BA
:101CB000040C7B6F396F1B0423433B667A66FFE796
:101CC000FFE7FFE7C04684B27B6F3D6F1B042343F1
:101CD0003B667A66FFE7FFE7C04600232C042D0C25
:101CE0007A6F386F00196941B0BC7047000000D0AE
:101CF000F0B594460025140E01D112020835140FD8
:101D000001D112010435940F01D192000235D40F94
:101D100001D152000135D40B0134254F7C66254C8E
:101D20003C660E0C93B2FFE7FFE7FFE73C6F6643AC
:101D3000360C7703BE467343DF0B5B04C01AB94110
:101D4000130C7343DB18C91ACE086643360CB6442D
:101D500093B273431F0F1B01C01AB941130C734395
:101D60001F0B1B05C01AB941860D8F023E43664307
:101D7000360C092D24DB520A7243801A7703460A77
:101D80006643360C16235B1BDE40DF40BF196446FA
:101D90006643821B7046043506330100D940A840D3
:101DA000C01900D30131A24206D20023F0BD0000C9
:101DB000000000D0FFFFFFFF121B0130F3D3F1E75B
:101DC00009277F1BFE406446A2B27243801A00D2EC
:101DD0000139220C7243130C1204821A99410B0030
:101DE0007046043513370100F940A840801900D32C
:101DF0000131002B02D1A2420AD2F0BD013000D342
:101E00000131121BFAD2013BF8D1A24200D2F0BD3F
:101E1000013000D30131121BF7E7F0B51C0C00D0E4
:101E200080E00CB400251C0A04D11B02160E3343BB
:101E3000120208351C0B04D11B01160F334312018B
:101E400004359C0B04D19B00960F3343920002355E
:101E5000DC0B02D192185B4101351C0097186441DC
:101E60000134464F7C66464C3C660E0CFFE7FFE7AC
:101E7000FFE7C0463C6F6643360C7703BE4697B219
:101E80007743C01B00D20139C01B00D201399FB279
:101E90007743C91BC91B170C77437E04FF0B801BBC
:101EA000B941CE086643360C0C2D33DBB644120B19
:101EB0001F053A431B0B97B27743C01B00D2013971
:101EC0009FB27743C91B170C77433E043F0C801B1E
:101ED000B941860D8F023E43664329277F1BFE4092
:101EE0000C3D7746AF40BF1930BCA2B2ABB27243D3
:101EF0007343801A9941220C7243130C1204801A06
:101F0000994102000B000137001BA941F9D2781E4C
:101F10000021F0BD0C277F1BFE4077467F0BAF40B2
:101F2000FF19E0E700245D1C07D0144F7D66396679
:101F3000FFE7FFE7FFE7FFE73C6F95B29EB265431F
:101F40006643401BB141150C1E0C654366433604C5
:101F50002F0C3E432D04401BB141994204D2020094
:101F60000B0020000021F0BD01D19042F7D3801A70
:101F7000994101349942F2D3F6E70000000000D005
:101F8000FFFFFFFF48404140484018B41B4B5B68CF
:101F9000FC46019308BD04DF5722001018B4174B0C
:101FA0001B68FC46019308BD00DF612200109446C7
:101FB000134A926F920809D2624618B40F4BDB683D
:101FC000FC46019308BD0CDF192500100C4AF0B542
:101FD000146E556E576F166F6246FFF7EEFF084A94
:101FE0001466556657671667F0BD18B4034B9B68B7
:101FF000FC46019308BD08DFBD2300100826002021
:10200000000000D0FFB550404240504059404B4086
:10201000594000E0FFB5154F4C00640D03D0BC42A1
:1020200004D10C0314D80020090D09055C00640DCF
:1020300003D0BC4204D11C030AD800221B0D1B058F
:1020400001264B4009D44B4003D58B4200D182423C
:10205000FFBD9942FCD19042FFBD0B43DB18034307
:102060001343F5D0C9434918FFBD0000FF07000026
:1020700000B5FFF7CFFF804100BDC04600B5FFF7B8
:10208000C9FF01D9002000BD012000BD00B5FFF748
:10209000B9FF01D9002000BD012000BD00B5FFF748
:1020A000B1FF804100BD012040054A00121804D84C
:1020B0005A00121801D80020704701207047000014
:1020C0000021002805D17047C1174840401AFAD0B6
:1020D000C90713B5064B1B6898470CBC441CA240AB
:1020E0001005120B0349091B09051943114310BDC3
:1020F000DC2500201F04000010B54C00620D802379
:10210000D218DB00D21A5B057E2A10DD9E3A13DA64
:10211000CC170903490819435242D14064000134E5
:102120001532202A05DAD0400843604310BD002054
:1021300010BD0846604310BDC80FC018013810BD5F
:1021400018B4044B5B6AFC46019308BD24DFC92622
:102150000010000008260020132370B51D78012D03
:1021600019D014DD2948FFF731FB06002848FFF796
:102170002DFB284C80223100200000F073FB022D43
:1021800006D02548FFF71AFB244B186070BD214C80
:10219000234AA264F5E72E001E4C214AA3085B42A5
:1021A0001E401D422FD0330022602020B100611854
:1021B000801B0A604A608A60CA600A614A618A615B
:1021C000CA610A624A628A62CA620A634A638A63AD
:1021D000CA630A644A648A64CA640A654A658A658D
:1021E000CA650A664A668A66CA660A674A67400816
:1021F000102803D18A67CA67A264C2E71E339B0016
:10220000E250A264BDE70023CFE7C046534400007C
:1022100053460000082600204C330000DC25002037
:102220002522001007B5604601880A0A0230DF2A1D
:10223000FAD1C9B2820804D302884088000410434E
:1022400000E00068014A5050039007BD08260020B6
:102250000FB403BC0CBCF0B50124E407634000E0FC
:10226000F0B50C0DCF0F661E3605891B640503D330
:10227000C943404200D30131640D03D0661CF60A05
:1022800007D0E41B00207F00791C89078912803C5D
:1022900024031D0DDF0F6E1E36059B1B6D0503D33A
:1022A000DB43524200D301336D0D03D06E1CF60A9E
:1022B00007D0ED1B00227F007B1C9B079B12803DFB
:1022C0002D032F1B661B58D4A446202E46DA203738
:1022D0001400BC401D00BD40F24033412A43801829
:1022E0005941CB0F05D0C943C0430022644250413D
:1022F000514162464D0D28D10D0D07D100281FD048
:10230000241940414941013A0D0DF9D0640006D32A
:10231000013000D30131002C01D140084000013AC6
:102320000BD4941CE40A04D112051144DB071944B0
:10233000F0BDD907204B194300E0D9070020F0BDBC
:102340000029DDD1002CDBD1F0BD0132C6074008E9
:10235000CD0728434908002EE1D0D9E73C2E29DAE1
:10236000203E40371400BC4000D00124F24014430A
:102370001A00BB401C43D317ACE7AC46202F08DA49
:1023800020360400B4400D00B540F84039412843E0
:10239000A5E73C2F0CDA203F40360400B44000D0C3
:1023A0000124F84004430800B1400C43C117EAE798
:1023B00010001900002494E70000F07FF0B50C0D28
:1023C000661E3605891BE60A6405640D02D0651C8D
:1023D000ED0A04D0002001210905803C2403A44615
:1023E0001C0D671E3F05DB1BE70A6405640D02D068
:1023F000651CED0A04D0002201231B05803C240348
:102400007740644497B484B296B27443070C7E4319
:10241000150C6F4380B26843361802D301200004C4
:102420003F183004350C00197D41844688B29AB2B9
:1024300050430C0C62431F0C7C438EB27E439219B6
:1024400002D301263604A4191604170C3618674166
:1024500001BC81B29AB25143040C62431B0C5C4331
:1024600080B25843121802D301200004241810042B
:10247000130C401863412D185E410020474106BCF3
:1024800088B293B258430C0C6343120C544389B284
:1024900051435B1802D301210904641819041A0C72
:1024A000091862416D1856410020474118BCF902D5
:1024B000720D1143F0026A0D1043ED020A0D03D1B3
:1024C0006D1940414941013B124E9B1B7600B342BE
:1024D0000ED26D0007D301300026714166463543A8
:1024E00001D1400840001B05C918E4072144F0BD94
:1024F0000BDA013306D1013004D101314F0D01D087
:102500004908F2E7E1070020F0BD0136310500205F
:10251000EBE70000FF030000F0B51C0D671E3F0550
:10252000DB1BE70A6405640D02D0661CF60A04D0C2
:10253000002201231B05803C2403D0252D06002604
:10254000F6432E661E096E66CE0FF619B446490094
:102550004F0D02D07E1CF60A03D000200021403F20
:102560003F033E1BB600B444013F7F05C91B490829
:102570002E6F013676089C02950D25437543ED13A9
:102580007543AD1301356D10F603761B0CB4CC0208
:10259000450D2C43A2B2B3B25A43270C7B43350CF2
:1025A0006F43A4B26C431B1902D3012424043F19C6
:1025B0001C041D0CA4187D4124196D41009A91B290
:1025C000ACB26143170C7C432B0C5F4392B25A436D
:1025D000A41802D301221204BF182204230C52189B
:1025E0007B41019C6C431B19520ED9010A434401E3
:1025F000A01A81B2B2B2514303145A43360C73434A
:1026000087B27743D617D21900277E4136049B192B
:102610001704160C7F185E417316ED18F30100269F
:1026200080337541A90F06D16400690AE8055B0A89
:10263000184309D22FE00422944480337541A90A3B
:10264000A8059B0A184326D3404149412404009A17
:10265000019B0D005543641B4343E41A95B286B2B7
:102660007543170C7E43030C5F4392B25A43B6186E
:1026700002D301221204BF183204330C52197B41D9
:1026800052429C41002C02D40022013051414008AA
:10269000CA071043490802B06246D7079210084B98
:1026A000D218084B9A4203D212058918C919F0BDF5
:1026B0000020002A01DC3900F0BD01331905F5E7DF
:1026C000FD030000FE070000002200B5203200F0EC
:1026D00004F8080000BD000000220B150AD410B554
:1026E000944600F031F81414013400DA0021CB17BD
:1026F000144C20470020002170476244343A0CD427
:102700000C2A07DA04009140904052422032D44013
:10271000214310BDD843D94310BD203207D40C4605
:102720009440524220321141D040204310BD080055
:10273000C917203203D452422032104110BD180074
:10274000190010BDFB2600100A0DCC0F531E1B05EF
:10275000C91A520503D3C943404200D30131520D77
:1027600003D0531CDB0A07D0121B00206400611C3D
:1027700089078912803A1203014BD21A7047000070
:10278000FF03000051434343C9188C46110C83B228
:102790004B4310B4040C614392B280B25043624385
:1027A0001C041B0C001910BC59411304120CC01856
:1027B0005141614470470000132310B512481C7842
:1027C000FFF704F80100012C0AD003DD80220F4836
:1027D00000F048F80E48FEF7F1FF0E4B186010BDF0
:1027E0000A4C5422200000F03DF80B4B6365A365B2
:1027F000E36523666366A366E36623676367A3678F
:10280000E3672362E361E5E7534600000827002001
:102810004C330000DC2500201D28001007B5604661
:1028200001880A0A0230DF2AFAD1C9B2820804D329
:10283000028840880004104300E00068014A5050BC
:10284000039007BD0827002001480421014B1847C9
:1028500000110020DD170010014B1B681847000015
:1028600000110020014B5B68184700000011002098
:102870007047C046F8B557464E46DE464546E0B579
:102880001F000A9B05009B460D9B0E009146924639
:102890009B0718D10B9B0C9A934214D213000B9AEE
:1028A000B8469B1A4B444C460F0006001D00220000
:1028B0004346013439002020B047AC42F7D1AA4644
:1028C00035003E0047460B9B002B38D09A441C0035
:1028D000D04653461A1B5B46013C185D31003B0055
:1028E000A847002CF5D10D9B9B0721D543464A46AE
:1028F0009C1A0C9BA3421BD93A009A464F4691461C
:10290000E2194B46310020200134A8475445F7D343
:1029100043460C99DB1B0133B9460022994203D38D
:1029200043464A1E4A44D21A4346904601339844CD
:1029300040463CBC90469946A246AB46F8BDD046C0
:10294000D1E7C046F0B54F464646D646C0B584B03E
:1029500098460EAB1B78129F994694460D9C109B8F
:10296000119EBA0725D4002E69D19C4200D3C2E043
:1029700001223A4092461F2C00D9BBE00C9A551E0A
:10298000302201E0202C03D001342A55A342F9D88B
:102990005246002A0DD0B4420BD21F2C62D80C9A9A
:1029A000551E302201E0202C5CD001342A55B4425F
:1029B000F9D1FA0635D57A055DD4002C57D10F9B95
:1029C000102B00D17CE00F9B022B00D18DE0302337
:1029D0000C9A012413704B46002B27D02D230C9A00
:1029E000135501340C9B62460093039743460296AD
:1029F0000194FFF73FFF04B01CBC90469946A246E5
:102A0000F0BDBB0663D4202CECD00C9B1A1901340A
:102A100078231370202CE5D030220C9B1B191A70E0
:102A20000134202CDED04B46002BD7D17B0735D488
:102A30003B07D7D520230C9A13550134D2E7012246
:102A400015003D40AA463A4220D04A46002A2AD1E3
:102A50000C323A4227D19C429DD21F2C00D88DE7E0
:102A6000202E19D92024FA06BCD57A0503D4A34216
:102A70001BD0A64219D00F9B102BC2D0022BC9D15C
:102A8000202CAFD00C9B1B19013440E09C4200D39A
:102A90008FE71F2C00D871E720248AE72B230C9A9C
:102AA000135501349EE7013ED5E7631E012C00D18A
:102AB00085E70F9A102A20D0022A25D01C00ABE708
:102AC000BB060DD478230C9A01241370A4E7202CA4
:102AD00000D187E758220C9B1B191A70013499E723
:102AE00058230C9A0124137096E70C9A6033012442
:102AF000137091E7202400265BE7023CBA06E9D474
:102B00000C9A12191C0083E70C9A924653446222D5
:102B10001A707FE710B5002800D110BD01F0A6FBA8
:102B2000FBE7C0460B0010B5002802D049681B68BF
:102B3000984710BDF0B5DE46574645464E46E0B5CF
:102B40009BB09B46249B0A909846259B0B910C9228
:102B50004046424619009A46FFF7A5FA002800D0E1
:102B6000E8E00122404651467F4B5242FFF796FA79
:102B7000002800D0DEE00122404651467B4B524205
:102B8000FFF776FA002800D0D4E000220023404668
:102B90005146FFF76DFA002800D0CAE15346C146FE
:102BA00009938023289ADB001A400E92289A1A4231
:102BB00001D1062326934C46099B234300D0D9E03C
:102BC000289B002600271B0500D4AEE100230D93AF
:102BD000269B19000D9B994200DCB0E1C81A431EE8
:102BE00026938023289ADB001A430023002528928D
:102BF0000D93279B0024AB4200D95C1B0223289A2B
:102C00001A400E92289A134203D06B426B415B42EA
:102C10001C400D9B002B07D04846099932003B0011
:102C2000FFF7C5F98146099100220023404651462D
:102C3000FFF71EFA002805D0802000068446099977
:102C400061440991289A4A4B0A9E13404A460493CC
:102C5000269B0B990293099B0394009201933000E9
:102C60005B460C9A884600F0A1F90400002D72D052
:102C7000289B220098061F23C017984341465B46B5
:102C80006530B0470D9B671CDA179C18DB0F984620
:102C90006B1E99460025544001E0202D13D00AAA4E
:102CA00094461F23200063440A2101355E19FEF774
:102CB00031FF3031317020000A21FEF72BFF260052
:102CC0000400092EE9D8052306934B4605930023FB
:102CD00004930A33039343463A000A9E0B9F0293E0
:102CE00012AB009339005B4630000195FFF72AFED6
:102CF0000E9B0400002B2ED00C9B279AC51AAA42CB
:102D000029D93C00814698461700434621005A19AC
:102D100020205B460135B047AF42F6D84C460C99AF
:102D20002798631A01330022984200D30AE1013444
:102D3000141910E0289B42460493279B0B99039398
:102D4000269B0A9802935346009201935B460C9A85
:102D500000F02CF9040020001BB03CBC90469946C2
:102D6000A246AB46F0BDC046FFFFEF7FFFFFEFFF7F
:102D7000FFF7FFFF764B099D9C466800400D6044BD
:102D8000FFF7A2F9734A744BFFF72FF9734A744B9C
:102D9000FFF704F92B03734A1B0B1A4306000F00BD
:102DA000714B1100484600220995FFF7EEF86F4A73
:102DB0006F4BFFF71AF902000B0030003900FFF7E4
:102DC000EDF8FFF799F90D90FFF77EF9694A6A4B24
:102DD00004000D00FFF709F90022684BFFF7DEF849
:102DE000FFF78AF9664A0600664B20002900FFF7C4
:102DF000FCF8040030000D000F96FFF765F9624AF9
:102E0000624BFFF7F2F802000B0020002900FFF7E9
:102E1000BCF802000B0006000F00FFF7E6F83200D6
:102E200004000D003B0030003900FFF7B7F8002226
:102E300010901191564B20002900FFF7B8F800229E
:102E4000544BFFF7ABF802000B0020002900FFF7FE
:102E5000AEF80022504BFFF7A1F802000B00200053
:102E60002900FFF7A4F80D00802132003B00040088
:102E7000C9050020FFF789F802000B002000290097
:102E8000FFF78CF802000B0010981199FFF78FF8EC
:102E90000022344BFFF782F8404A0F9B944663446C
:102EA00000221B05FFF7A1F806000F0002000B002F
:102EB00048460999FFF7DCF800280AD00D9B30003E
:102EC000013B39000D930022324BFFF770F80600EA
:102ED0000F00C6250D99330063318D42AD4128990D
:102EE0006D420435090500D483E63B4300D16FE60B
:102EF000099C484621002A4A2A4BFFF7C7F80028B8
:102F000008D0002248462100274BFFF7B1F80028DF
:102F100000D05DE6269B002B00D16AE60E9B5A1E70
:102F20009341269AD31A269363E6002304250D9332
:102F30005FE680231B065344C146099331E6002314
:102F400026934EE60A008446013A6244121BEEE6DE
:102F500001FCFFFFFB799F501344D33FB3C8608B44
:102F6000288AC63F0000F03F0000F83F61436F63CE
:102F7000A787D23F71A379094F930A400000E03F31
:102F80001655B5BBB16B0240EF39FAFE422EE63F53
:102F900000002C400000244000001840FF03000007
:102FA0002D431CEBE2361A3F80842E41F0B54E468D
:102FB000DE4657464546E0B597B09946209E219F8C
:102FC000229B8346984607910C923B0032003000CA
:102FD0003900FFF768F8002800D0C1E10122300075
:102FE0003900CA4B5242FFF743F8002800D0E0E016
:102FF000012230003900C64B5242FFF74FF800283B
:1030000000D0B6E0002230003900C24BFFF746F88E
:10301000002800D098E0002230003900BE4BFFF7B6
:1030200027F8002800D08FE000220023300039006C
:10303000FFF71EF8002800D0B0E000230D93249B7A
:103040005B0501D40623984608AB9C461722002452
:1030500030234146624404E0013413550139202CE9
:1030600001D00929F8D8884630003900FFF744F824
:103070004346DA00A94B05009B181A685B68089262
:103080000993FFF721F802000B0030003900FEF72A
:103090007CFF089A099BFEF7A8FF0A900B91FFF7A7
:1030A0004FF88246FFF70CF802000B000A980B99C4
:1030B000FEF76BFF00229A4B0A900B91FEF7EEFF92
:1030C000002800D1C0E001239C46E2445046FEF7B0
:1030D000F7FF02000B0008980999FEF7CFFF0028C0
:1030E00002D000239A4601354346002B69D008AB35
:1030F00017269C4608956644554614E001235B421A
:1031000043440A2128009A46FEF704FD0134303179
:103110003719397028000A21FEF7FCFC092D00D868
:10312000D5E0D0460500202CE8D10323249A134093
:10313000012B00D100E10EAB9846249B0194039330
:10314000239B029343461EE0249B58460493239BF3
:1031500000960197039343460C9A029307994B46B6
:10316000FFF7E8FC17B03CBC90469946A246AB4638
:10317000F0BD249B5B070ED403226A4B2499019275
:10318000039123990291009358464B460C9A079954
:10319000FFF770FBE6E70422634BEFE73B003200EA
:1031A00000200021FEF7F1FE012306000F000D9321
:1031B00045E7249B0393239B0293042301935B4BDA
:1031C000E1E72800FEF780FF02000B003000390025
:1031D000FEF7DBFE524B002206000F00FEF748FF11
:1031E0000EAB984600280AD10022300039004C4B23
:1031F000FEF754FF002802D1EB0700D50135202C43
:1032000032D008AA94461723280063440A210134C7
:103210001E19FEF757FC3031280031700A21FEF7E5
:1032200051FC051EEBD10323249A1340012B00D13E
:1032300091E01F2C00D980E70D9B002B3BD02D2364
:1032400042461355013478E700220A980B99344B13
:10325000FEF70EFF002800D046E75346002B67D14B
:1032600001239C46E2443FE70323249A1340012BA9
:1032700000D062E7239B002B00D15EE70D9B002B63
:1032800003D1249A0C33134202D0239B013B239396
:10329000239B9C42CDD208AB9C461722302362442C
:1032A0001F2C06D82399013413558C42C1D0202CF1
:1032B000F8D1202441E7249B5B0721D4249B1B07E2
:1032C00000D43AE7202342461355013435E75746E8
:1032D000089D202C37D0220030214046002F08D0F6
:1032E0000132B154202A43D0D3431B191B18002BA1
:1032F000F6D10EAB98462E234146541C8B547EE7E4
:103300002B2342461355013417E7C046FFFFEFFF5A
:10331000FFFFEF7F65CDCD4165CDCDC1E0810010D0
:103320000000E03FE87F0010EC7F0010F87F001005
:10333000DB0700D4D8E693E7239B002B00D1FAE605
:103340000EAB98469AE70323249A1340012B00D032
:10335000F1E60EAB9846239B002B00D169E78DE781
:10336000249B0393239B029303230193064B0AE7B9
:103370000323249A20241340012B00D0DBE6239B57
:103380002024002BDCD1D6E6F47F0010F0B5DE4619
:103390004E4657464546E0B59FB01C00289B9346D5
:1033A0000993CF4ACF4B894608901A60002900D173
:1033B00016E2002320789A46002800D118E2260061
:1033C0001D004C460AE02A006F1C5B46089D210048
:1033D000A8473D000136307800287AD02528F2D160
:1033E00010239A46083B9946043B9846023B00212D
:1033F0009C46721C107816000300203BDBB2102B99
:1034000003D8B94F9B00FB589F460300303B092B64
:103410003CD900230A932A2800D171E00023984662
:103420002E2847D00300683BDBB2122B1FD8AF4ACF
:103430009B00D3589F46012301321943DAE76346C4
:1034400001321943D6E7434601321943D2E75346C6
:1034500001321943CEE74B4601321943CAE770786F
:103460006C2800D1BFE280235B00194301360300C2
:10347000253BDBB2532BA6D89D4A9B00D3589F46D1
:1034800080235B00707819430136F0E700270300C2
:10349000B800C01901364000C018337830381A001F
:1034A000303A0700092AF3D90A90180000239846F9
:1034B0002E28B7D180237078DB0019430300303BFE
:1034C000721C092B00D895E12A2800D1A6E116002C
:1034D000A8E7A146AA462C00D34503D801235B42A6
:1034E0005B449A465B46524649460020089DA847E1
:1034F00020001FB03CBC90469946A246AB46F0BDAA
:10350000099B40CB0A96002E03DB50780993561C8A
:1035100084E72838014370420A9009935078561C7A
:103520007CE7782800D1D4E1582800D168E26F28E0
:1035300000D152E3622800D1D8E110230A009A4357
:103540000B92692801D000F0A2FC0A230C934B05D2
:1035500000D4D5E101230B9A9A430B92692800D13C
:10356000CEE1642800D1CBE10B9A802311009B00AF
:1035700019408A461A4200D032E3802311005B00D2
:10358000194089461A4201D000F002FC13005B0684
:1035900000D510E30B9B1B0601D400F06EFC099BC9
:1035A00004CB1204120C924609935346002B00D010
:1035B00064E30B9A1033110099430B91520500D428
:1035C0005CE3002399460B9B06930A9B05934346B5
:1035D00004930C9B03930023DEE27078682800D1EB
:1035E00007E280230136194341E780239B0070786E
:1035F000194301363BE7462800D174E10722099BB5
:103600000491073393430A9A1900039242460292A7
:103610000CC908980092019309912A005B46210089
:10362000FFF7C4FC01360500D5E6099B1A0008CA5D
:103630009146002B00D105E1212211438A460EA8B4
:1036400084461F216144099500220F27A4460D00DE
:1036500002E0202A0CD00B003C001C402000373038
:10366000092C00D807380132A85419090F2BF0D8BB
:103670006446099DF0E08B0700D4D1E1099B2A0044
:1036800099466B1C98464B4601CB21009946089FF2
:103690005B46C0B2B8470A9B9C466544012B00D8E4
:1036A00090E2B2465E464746A846089D3A0033007F
:1036B000013721002020A8474745F7D1B3464B46A4
:1036C00056463D000993013685E62A006F1C5B468D
:1036D000089D21002520A84701363D007BE6C04615
:1036E0008D330010B02500200080001044800010B1
:1036F00090800010099B04CB994643460992002B09
:1037000000D097E013789C46002B00D1B3E302234E
:103710005B425A1C099B924618000A9F0B92504428
:1037200002E0834200D169E15A780133002AF8D1DE
:10373000099A0A979B1A0B9380230A00DB001A4010
:103740000C92194204D00B9B434501D943460B937D
:1037500002231A000A400D920B4200D184E1604618
:10376000002823D00C9B002B00D124E1A844C246A2
:10377000099B57465B1B9846089BB2462A002600C9
:103780005C469B4609E023003100551CD847434660
:10379000585D002800D13FE12A009742F3D1A346AB
:1037A0003D00340056460D9B002B69D00B9B0A99B7
:1037B000A846994264D98C466544ED1A089B474651
:1037C0009A46B04626005C463A0023000137310095
:1037D0002020D047AF42F7D1A346340046464FE001
:1037E000D24B2078089300239A46002800D0E6E5C3
:1037F000002471E6434606000A9F9800C018013273
:10380000400080191678030030003038303B09281A
:10381000F3D93000984616000A9703E6099B023652
:1038200004CB9046D2434046D217104080460993BD
:103830003078F7E513789C46002B00D11AE3434615
:10384000013B66E710220800904311321043824684
:103850000022490500D4F2E6534606930823059357
:1038600043460493102303930023029316AB019263
:1038700000932A005B4621000898FFF763F80500D3
:103880004B4601360993A6E5202302009A43472AB6
:1038900004D180231B01194302239843452801D1F9
:1038A000202319430722099B0491073393430A9A63
:1038B00019000392424602920CC9089800920193A3
:1038C00009912A005B462100FFF734F90136050013
:1038D00081E510230C930C230A009A430B924B05AD
:1038E00000D43BE636E62023194387E602230C93F7
:1038F0000B910B996428EED10B9B5B0500D529E653
:103900000B9A802311009B0019408A461A4200D06E
:10391000CEE0802311005B00194089461A4200D096
:10392000DBE113005B0600D51DE10B9B09991B062B
:1039300000D499E208C91BB2D8171A18424092B2B3
:1039400009919246DA0F1292002B09D1802310229E
:103950000B99DB000B4091430B91002B00D012E13F
:103960000B9A6123920600D541230EA91F228C4693
:10397000DBB262440A3B57461395A2464D460C9C67
:10398000B1460D9316000AE03033DBB201357355B2
:10399000A74200D21CE1202D00D119E1070021002F
:1039A0003800FEF7B7F8CBB20929EDD90D9A944645
:1039B0006344DBB2EAE7099B5F465B1B98460A9BC0
:1039C000B3469A462600089C2A003B003100A047D7
:1039D00043460135585D0028F6D1534634000A931A
:1039E0005E46BB46DFE6C0239B00B0781943023633
:1039F0003DE5C023B0781943023638E50A979BE6C7
:103A00000C230A009A4314331A4310230B920C938D
:103A10004B0500D4A8E59DE5A34634005646C2E612
:103A20000A9A012A00D82EE26B1E9F18089BB04606
:103A3000994626005C462A002300013531002020EB
:103A4000C847BD42F7D1A34634004646099B3A0019
:103A500001CB210098467D1C5B46089FC0B2B84749
:103A6000434601360993B6E40B9A0A98531C9042D8
:103A700000D80AE243199B1A1F00089BB246260091
:103A80005C469B462A002300013531002020D847A0
:103A9000BD42F7D10A9BA34601330B93099B340027
:103AA0001B7856469C466046002800D05AE6E7E65A
:103AB0000722099B07339343013294469C44624694
:103AC0005F6809921A68FB17109311931098119967
:103AD000030053400E930B007B400F9394460E9AC5
:103AE0000F9B121A8B410E920F93FB0F624612939B
:103AF00000233A439A463DD00B9A6123920600D5A3
:103B000041230022DBB20EA90A3B8C4691460D935D
:103B100043461F326244139515964D460E9E0F9FE5
:103B2000A14690460C9C14930FE0C04671280010EB
:103B30003032D2B2434601355A55BA4500D17CE104
:103B4000202D00D17CE106000F0022000023300070
:103B50003900FEF71DF8D2B2092AE9D90D9B9C461F
:103B60006244D2B2E6E7FF23099904C913401A0060
:103B70000991E6E60B9A1033110099430B91520517
:103B8000BAD5002399460B9B06930A9B059343469F
:103B900004930C9B0393129B02934B46019316AB29
:103BA0002A00009321005B460898FEF7CBFE013601
:103BB0000500FFF710FCFF22099B02CB11408A464B
:103BC0000993F2E44B46454609930136FFF703FC9F
:103BD0004E465446A946139DD5E708230C9387E625
:103BE0000722099B07339343013294469C44624663
:103BF00009921A685B6810009A46130052461343F4
:103C000007D10B9A1033110099430B91520500D53F
:103C1000D7E40B9A6123920600D541230022DBB240
:103C20000EA90A3B8C4691460D9343461F326244CF
:103C300057461295A2464D460400B14690460C9E4A
:103C400013930DE03032D2B2434601355A5500236A
:103C5000BB4200D1FDE0202D00D1FDE004000F00AB
:103C60003200002320003900FDF792FFD2B2092A6A
:103C7000E8D90D9B9C466244D2B2E5E70B9A6123DA
:103C8000920600D54123DBB20EA90A3B1F228C46C7
:103C90000D93230062445446129517004D469A46F0
:103CA000B1460C9E08E03033DBB201357B55B4429F
:103CB0000ED3202D0CD0040031002000FDF72AFF88
:103CC000CBB20929EFD90D9A94466344DBB2ECE7F5
:103CD0004E465446A946129D75E4099B1A0008CA2F
:103CE000D91713925A184A409146DA0F1292002BB4
:103CF00008D1802310220B99DB000B4091430B91DC
:103D0000002B2BD10B9A6123920600D541230EAADA
:103D10001F279446DBB20A3B0D956744554609932D
:103D2000A2464C46B1460C9E08E03033DBB201356A
:103D30007B55B4420ED3202D0CD00400310020005E
:103D4000FDF7E8FECBB20929EFD9099A94466344FE
:103D5000DBB2ECE74E465446AA460D9D0B9B2A006B
:103D600006930A9B21000593434604930C9B0898F5
:103D70000393129B013602935346019316AB0093B3
:103D80005B46FEF7DFFD139B05000993FFF723FB5E
:103D9000099B04CB91461293002A08D1802310225C
:103DA0000B99DB000B4091430B91002B2BD10B9A0D
:103DB0006123920600D541230EAA1F279446DBB249
:103DC0000A3B0D95674455460993A2464C46B146B9
:103DD0000C9E08E03033DBB201357B55B4420ED384
:103DE000202D0CD0040031002000FDF793FECBB253
:103DF0000929EFD9099A94466344DBB2ECE74E46B1
:103E00005446AA460D9D0B9B2A0006930A9B21004F
:103E10000593434604930C9B089803930023029355
:103E20005346019316AB00935B46FEF78BFD129B46
:103E3000050009930136FFF7CEFAB44200D87FE6B9
:103E4000149B4C460E960F97A9469846159E139DB7
:103E500099E6A64200D8FEE6139B4E469846A94630
:103E60005446129DFFF7AFFB08C9D8171A184240F5
:103E7000099166E500230B935EE4099B04CB92460F
:103E80000993FFF792FB2F00E0E50B930BE6063B4F
:103E90000C932EE500B585B00391012102900093AB
:103EA000034813004A4202A9FFF770FA05B000BDAB
:103EB000252B001010B5094A0300146884B0002CAB
:103EC00008D0012200910648524203A9A0470120D0
:103ED00004B010BD00F016FA0020F9E7B02500206C
:103EE000152B001000BEFDE7094A030010680028EA
:103EF00005D00849C3188B4207D81360704706489D
:103F00000449C31810608B42F7D901204042F5E7FD
:103F1000AC21002000000420CC280020030010B5B4
:103F200008001100002B05D1044B1A685B6800F0F3
:103F30003FF910BD01204042FBE7C046187F00104A
:103F40000300013B10B508001400012B06D8012323
:103F50000022210000F0ACF8200010BD01204042FA
:103F6000FBE7C046012040427047C0460120404266
:103F70007047C04610B5FFF7B5FFC04670B5FDF7F6
:103F80007BFC074C074B9C4209D2013B1D1BAD0833
:103F90000135AD002D1908CC9847AC42FBD170BD5E
:103FA000847C00108C7C0010030010B508001B6896
:103FB0001100984710BDC046F8B54746CE4680B5BB
:103FC000437D07000D001600002B37D00024002091
:103FD000002A1EDD4B1E98461B4B9946002C2BD009
:103FE00043461B5D0D3B5A425341DBB22A5D0A2A10
:103FF00013D00134A642F1DC864203DD311A3B685E
:1040000028189847AD19013D2B780D3B5A42534172
:104010003B750CBC90469946F8BD002BE9D1A042F7
:1040200003DA211A3B6828189847484602213B6862
:10403000013498472000DDE73B7DD7E70368110096
:1040400028009847E5E7C04630820010F0B5C64624
:104050000C000968060000B5802906D04B1C2360BF
:104060006418267104BC9046F0BD0F4B1D68002DEE
:1040700016D0231D98460D4F02E02D69002D0FD05C
:104080002B68002BF9D03B68002B01D0AB42F4D158
:10409000280041462268FFF78FFF2D69002DEFD1E0
:1040A00001230021DBE7C046A0210020A821002039
:1040B000F0B5DE4657464E464546E0B585B017009A
:1040C0001C0006000D00FDF79FF90023314A12186D
:1040D0004B41002B59DB304908008A4603F08CFD28
:1040E00001906B1C03D1300003F06AFC0500002C2A
:1040F00026D12A4B98462A4B1C68002C15D0002F3D
:1041000021D1284F02E02469002C0ED02368002B17
:10411000F9D03B68002B01D0A342F4D120002A0043
:104120003100C0472469002CF0D1019B002B28D11D
:10413000280005B03CBC90469946A246AB46F0BD6F
:10414000194B9846D7E7174B994602ABDF1D0A2358
:104150009B4602E02469002CE7D02368002BF9D0AD
:104160004B461B68002B01D0A342F3D12A0031003B
:104170002000C0475B460122390020003B70C04749
:10418000E8E7504603F000FDD2E70122074B524218
:10419000A1E7C04640420F0088190020A93F001047
:1041A000A0210020A8210020B93F0010FFFFFF7FC1
:1041B000F8B557464E464546DE4698461A4BE0B59A
:1041C0009A461A4B07000E0093469946184D5346DF
:1041D0001C68002C03D115E02469002C12D02B6838
:1041E000002B01D0A342F7D1A368002BF4D03100FB
:1041F000380098470028EFDD3CBC90469946A2461F
:10420000AB46F8BD4B465B6A984508D84A46926A69
:104210005A4501D2984502D002204042ECE70120E5
:104220000021FDF7FBF8D2E7A02100200040054067
:10423000A82100200A4A1368002B05D10CE01A00BF
:104240001B691032002B07D09842F8D1002902D107
:1042500003691360016170470029FCD01060FAE720
:10426000A021002010B500F003FB10BDF0B5CE4634
:10427000474680B583B06B460500DE1D3070FDF704
:10428000C3F800231A4A12184B41002B2CDB1949A2
:104290000800884603F0B0FC174B07001C68002C90
:1042A00016D0164B994602E02469002C10D02368E2
:1042B000002BF9D04B461B68002B01D0A342F3D151
:1042C000200001223100FFF777FE2469002CEED197
:1042D000002F05D1280003B00CBC90469946F0BDD4
:1042E000404603F051FCF5E70122054B5242CEE770
:1042F00040420F0088190020A0210020A8210020A2
:10430000FFFFFF7F70B5040003F05AFB012301009B
:10431000050001222000FFF7CBFE084B1C68002C93
:1043200006D06368002B05D098472469002CF8D18B
:10433000280070BD2469002CF3D1F9E7A0210020EA
:10434000F0B5CE46474680B5A5B004000D00FDF798
:104350005BF800232A4A12184B41002B49DB294EF7
:10436000300003F049FC00230700039322002B00D8
:10437000254803A9FFF78EFD039B8046002B14D12F
:10438000224B1C68002C06D06368002B0BD098478A
:104390002469002CF8D1002F27D1404625B00CBC51
:1043A00090469946F0BD2469ECE7184B1D68994684
:1043B000002D22D0164C02E02D69002D11D02B6863
:1043C000002BF9D02368002B01D09D42F4D1039B30
:1043D00028001A0004A90193FFF7EEFD2D69002DB6
:1043E000EDD14B4603951C68CCE7300003F0CCFBC5
:1043F000D3E70122074B5242B1E70395CBE7C04612
:1044000040420F00881900204D400010A0210020DC
:10441000A8210020FFFFFF7F0FB400B583B004A9DF
:1044200001C90191FFF78CFF03B008BC04B0184725
:104430007047C0460022014B1A70704702260020C8
:104440004B790020FF2B0BD18B79002B08D1CB7936
:10445000012B05D1082A03D98A78024B09301A703A
:104460007047C046022600200120704710B5012980
:1044700009D115495379107909781B0203430020AB
:10448000994202D010BD0120FCE75378012B08D0DF
:10449000022BF7D1002064220021FDF73BF9012017
:1044A000F0E7D37891781B021943DB0507D54A0A58
:1044B000100001231A407E331940FDF7ADF90120A9
:1044C0004A0A4042F5E7C0460226002000487047ED
:1044D0005482001070B5050014000120012909D193
:1044E00053780020012B05D1637912791B02134305
:1044F000072B00D070BD21002800024A9F3301F035
:1045000061FAF7E7788200100123037000487047D2
:10451000348200104A780B7812021A438B7810B557
:104520001B041A43CB781B0613439622D2009342F6
:1045300000D010BD0022012011004042FDF76CF9AF
:10454000024B1860024B19607047C04640210020A2
:104550004421002010B5024B1878FCF73DF910BD3E
:1045600003260020154B70B51A68002A22D0EFF3FD
:10457000108172B610680028FCD0BFF35F8F002254
:104580000F48596002701B68BFF35F8F1A6081F398
:104590001088002400250B4E3078FCF711F9002814
:1045A00004D1002400252900200070BD3078FCF7DC
:1045B00013F9F8E7FA240025A400ECE7BC25002055
:1045C000042600200326002070B5040000200E0001
:1045D00001F0EAFA002835D0002001F0FBFA0028AB
:1045E00030D0FCF711FF0023184A12184B41002B62
:1045F00024DB174D280003F0FFFA002822D000200A
:1046000001F0D2FA00280BD10120002103244042FE
:1046100000F01CFD6442280003F0B6FA200070BDD3
:10462000002001F0D7FA0028EED02100320000204F
:1046300001F0DCFA041EEED1033CECE70122054B4D
:104640005242D6E703246442E8E7C04640420F00E6
:10465000E4250020FFFFFF7F10B5FCF7D5FE002307
:104660000E4A12184B41002B13DB0D4C200003F0B7
:10467000C3FA00280CD001200021404200F0E6FCE3
:10468000002001F0FDFA0028F5D1200003F07CFAAB
:1046900010BD0122034B5242E7E7C04640420F00E3
:1046A000E4250020FFFFFF7FF8B5DE46574680B5C2
:1046B00005000C00FCF7A8FE0023364A12184B41F7
:1046C000002B5ADB344908008A4603F095FA00288B
:1046D00003D10CBC92469B46F8BD002001F064FA61
:1046E00000284ED00026002C43DD2C4B9B4614E0C6
:1046F000A919002001F000FB070001200021404221
:1047000000F0A4FC002001F0BBFAFCF77DFE234B77
:10471000F61918605960B4422BDD002001F00EFB41
:10472000A71B0200B84200DD3A00002AE0D10120B8
:104730000021404200F08AFC002001F0A1FA002094
:1047400001F032FA002814D0002001F0F7FA002816
:10475000E1D1FCF759FE5B460F001A685B68002147
:1047600084460F4812184B419F4202D8D3D194453A
:10477000D1D9504603F008FAABE70122094B524267
:10478000A0E700200021054B18605960504603F057
:10479000FBF99EE740420F00E4250020101B00209B
:1047A00020A10700FFFFFF7F30B52A4C85B0002114
:1047B000200003F011FA00281CD1274B1A68002AA8
:1047C00016D0EFF3108172B610680028FCD0BFF34A
:1047D0005F8F01242148596002781B68D2B20470AF
:1047E000BFF35F8F0020186081F31088002A17D074
:1047F00005B030BD01200021404200F027FC002020
:1048000001F0E8F90500200003F0BEF9002DEFD01B
:10481000134B1B68002BEBD0124A10689847E7E750
:10482000FCF7D2FB0400FCF7EFFDFA220023920014
:1048300012184B41002B09DB01210291002101914B
:10484000094920000091FCF7C3FBD1E70122074B87
:104850005242F1E7E4250020BC2500200426002078
:10486000402100204421002065450010FFFFFF7F0C
:10487000D02310B51B0684B01C68FCF7A5FBFCF721
:104880009DFCA04202D0002004B010BD294B0021A5
:1048900000201B7801F0CEFD27480368002B41D093
:1048A0000120FCF719F9FF23244C254920701840FA
:1048B000FBF7ACFF20780121FBF770FF0520FBF729
:1048C00093FF002821D1082200211E48FDF7C4FFD4
:1048D000FCF77AFB0400FCF797FDFA220023920014
:1048E00012184B41002B20DB012102910021019184
:1048F000154920000091FCF76BFB0028C3DB13482F
:104900000121FFF797FC0120BEE70120FBF716FF0E
:1049100001000C48FCF744F9002205200C49FBF784
:104920009FFFECE7FCF720F9BAE70122094B52425E
:10493000DAE7C04650850010E42500200326002059
:10494000A9470010BC25002065450010101100206B
:1049500055450010FFFFFF7F10B5002001F024F93E
:1049600010BDC04600487047C08300100048704723
:104970006C83001070B5040016480378002B20D01B
:10498000002C06D1C1241448144BA4004380048099
:1049900070BD052C1CD8124B0F48A400E558811C93
:1049A000002304E001330A800231132B0DD0EA5CAE
:1049B000DCB2002AF6D1C023013464009B001C4302
:1049C000E5E7112100F016F8DAE7CA24A400DEE7D3
:1049D0000020DDE7EC2500207821002009040000FC
:1049E000D483001010B5024800F0E2F810BDC046B4
:1049F000D425002030B54B1E012900D1B0E06B4A10
:104A000011780D112C0030349F2900D9ABE00470CF
:104A1000012B00D1C7E00F21147821400C00303465
:104A2000092900DDA1E04470022B00D1BBE05178E0
:104A30000D112C0030349F2900D999E08470032B8C
:104A400000D1B0E00F21547821400C003034092906
:104A500000DD8FE0C470042B00D1A4E091780D112B
:104A60002C0030349F2900D987E00471052B00D138
:104A700099E00F21947821400C003034092900DDA1
:104A80007DE04471062B00D18DE0D1780D112C0012
:104A900030349F2900D975E08471072B00D182E062
:104AA0000F21D47821400C003034092900DD6BE05F
:104AB000C471082B00D176E011790D112C0030342F
:104AC0009F2964D80472092B00D16CE00F2114795E
:104AD00021400C00303409295BDC44720A2B62D07F
:104AE00051790D112C0030349F2955D884720B2B2D
:104AF00059D00F21547921400C00303409294DDC64
:104B0000C4720C2B4FD091790D112C0030349F2999
:104B100000D9073404730D2B45D00F21947921401F
:104B20000C003034092901DD37310C0044730E2BA1
:104B300039D0D1790D112C0030349F2900D9073498
:104B400084730F2B2FD0D1790F220A4011003731F7
:104B5000092A01DC30321100C173102B23D0103030
:104B60000023037030BD073451E737310C005AE79A
:104B7000073463E737310C006CE7073475E73731EA
:104B80000C007EE7073487E737310C0090E70734E5
:104B900098E737310C00A0E70734A7E737310C005E
:104BA000C4720C2BAFD1C018DAE7C046D425002060
:104BB00030B5002589B004000922002101A8009524
:104BC000FDF74AFE0922002105A80495FDF744FEE1
:104BD0004B236A466846137004A90D2202F0CCFFED
:104BE0001521082220006944FDF73CFE09B030BDC4
:104BF000F8B500F047F90C231A4DFF22AB670520EA
:104C00001949FBF72DFE194C402200212000FDF729
:104C100023FE40270023012600222120144966702C
:104C200063802783E276A1600B6022545F3060844A
:104C3000453822540F49104A63602787A262E16019
:104C400013606362E16202F0EFFF80239B052E6434
:104C5000EB649023094A0120EA508022084B52025B
:104C6000DA64F8BD0000115061050020B021002079
:104C700084001050000110508000105010D001002E
:104C80000020115010B501210520FBF787FD10BD54
:104C900010B500220021024800F014F910BDC046F2
:104CA000D0210020044B1970002904D080219023CA
:104CB000024A8902D1507047FE2500200020115081
:104CC0000B785B0602D14B78052B00D070478A78B1
:104CD000014B1A60FAE7C04600001150F0B5C64615
:104CE000C87800B58007830F1800012B68D08F7833
:104CF0000A794B797F213940FC091B024E0013438E
:104D0000334D32195201AA18977001276740577026
:104D100000275B055B0DD7701383D076B846CA00B9
:104D2000012C32D02B4FBC468F016244BC46AC44B0
:104D30006746BA6047461760002939D0264AC9003D
:104D400090466246414451603F223F3393430228DC
:104D500038D0224937190A687F01D3180B602049DF
:104D6000EF19FA608B422FD8341964012D19EB7EAC
:104D70001C499B064A40134380220120120613431C
:104D80006A68136004BC9046F0BD174FBC468F01A3
:104D90006244BC46AC446746BA6247461760002985
:104DA00006D0104AC9009046624641445162CBE7A2
:104DB000002364012D196B600C4B0120EB60E1E7CF
:104DC0000020DFE75B00C4E7FCF750FDFA68CBE7A3
:104DD000B02100208400105004001050B82500209D
:104DE000FF0F1050000010508000105000011050B4
:104DF00010B502F019FF10BD10B57F200C00204047
:104E00004000E409110000191A00034B4001C018CA
:104E100000F058F8012010BDB02100207F231800B9
:104E200010B508400B420BD0C90980224000401841
:104E30000649400140181201002102F0FDFE10BD9C
:104E40000223034AC9095B1A9366EEE7B0210020EA
:104E5000002011507F23180010B508400B4200D1EC
:104E600010BD00234000C9094118044849014018F9
:104E700000220349C37002F0DFFEF1E7B0210020F9
:104E8000FFF7FFFF80220A4B520410B51A60094B4E
:104E900009491A6010000B689843FBD18022002159
:104EA00052010648FDF7D8FC0922054B5A6710BD90
:104EB00000E0004000F0004008C00040000010503A
:104EC0000000115070B5837E04000D001600002B09
:104ED00019D100232100E3820133A682A376256144
:104EE000A01C1B3102F068FE002804D08021902312
:104EF000084A8902D150200002F056FE002805D051
:104F00000123237770BD02F087FEE2E7200002F064
:104F10007BFEF7E7002011507047C0467047C0463F
:104F200000207047002070477047C0467047C04659
:104F30007047C0467047C046024B5878431E9841A0
:104F4000C0B27047181D0020024B18784007C00FF0
:104F50007047C046181D0020F0B546464F46D6465D
:104F6000C0B52F4B814698461B780E000124FF2BBD
:104F700043D1002940D0002154222A48FDF76CFC7F
:104F80000022294C294B20001A70FBF7EDFD284B1D
:104F90001C60284C20001430FBF7F4FD200001F0C9
:104FA0002DFE254B254D1C60254B002B04D02800E1
:104FB000FFF7AAFA234B18602349002400238A46EE
:104FC0002A78204F10E03A68630194466344002B2E
:104FD00012D05B68002B0FD098472A780134E4B2D6
:104FE000511C2300A1420EDBA242ECD89B1A5B01AC
:104FF00053445B68002BEFD1002420001CBC90467A
:105000009946A246F0BD43464A46310048461A70CA
:10501000FFF7EEFD041EEFD04846FFF733FEECE746
:1050200044110020181D0020101D0020FF25002025
:105030006C1D002028110020701D0020FD2500207F
:1050400009450010681B0020F0840010F0B5DE4612
:1050500057464E464546E0B5BF4B8BB01B78FF2BFD
:1050600000D126E1BD4B07AC9A46BD4B9B4653464B
:105070001D686A69EFF3108172B61368002BFCD0CB
:10508000BFF35F8FA9612800210001F001FC6A696C
:10509000AB69BFF35F8F0021116083F31088002894
:1050A00000D106E16378082BE1D85A469B00D3581B
:1050B0009F466368002BDAD0A0689847D7E77F2324
:1050C0002179A84D0B405800CA092D18AD182A00A7
:1050D000012630321079B043107110790336B04395
:1050E0001071002B00D1EDE09F4A2B7D1278934286
:1050F00000D3DBE09D4A5B011268D318002B00D17E
:10510000D7E09D6962792078A368A847AFE7984AFD
:105110001378002B00D1CCE01378013BDBB2137085
:105120001378002BA3D101228E4B01211B788D48CF
:1051300013438C4A8B4D13703423D25C8A43C25480
:10514000C25C04208243EA540133EA5C8A43EA5495
:10515000EA5C8243EA5423780020994600F098FCE8
:10516000602223791A40602A0DD0402A00D1B4E091
:10517000DB06DB0E012B00D102E1022B00D1C6E0E1
:10518000002B00D1B5E020780021FFF747FE8021F9
:105190002078FFF743FE6AE7724D2B78DB0700D4D7
:1051A00065E7FFF7C7FE62E76E4BDB78DB0700D4ED
:1051B0005DE76068FFF7B2FE59E76A4D2B78DB07C1
:1051C00000D454E728780007C00FFFF7B1FE4EE780
:1051D0006849654D89466549002300268846277839
:1051E0002A7810E042461268730194466344002B0B
:1051F00066D0DB68380098472A780136F6B2511C31
:1052000033008E423CDC9642ECD39B1A5B014B444C
:10521000EFE75849544D89465449002300268846F3
:1052200027782A7810E04246126873019446634456
:10523000002B20D0DB68380098472A780136F6B278
:10524000511C33008E4205DCB242ECD89B1A5B0144
:105250004B44EFE7434D542200212800FDF7FCFAB0
:105260001022FF21281DFDF7F7FA28002022FF2138
:105270001430FDF7F1FA00F001FCFFF757FEF6E6F7
:10528000384D542200212800FDF7E6FA1022FF21B4
:10529000281DFDF7E1FA28002022FF211430FDF738
:1052A000DBFA00F0EBFB2379AB70E0E6501C984290
:1052B0000EDA0BB03CBC90469946A246AB46F0BD18
:1052C000284DEEE762792078A36800F0F5FBCEE682
:1052D0009B1A284A5B01D31813E7274800F0D8FB34
:1052E0000121484608AAFFF7F5F8002800D0BEE6DD
:1052F00049E7202A00D149E1002A00D043E7637939
:10530000092B00D93FE71D4A9B00D3589F467023C5
:10531000217A0B4200D036E77F25124B0D406D00FD
:10532000CF095B19DB191E7D0F4B1B789E425DD3A5
:10533000581CB04200DA45E1F61A0E4B76019E1970
:10534000002A00D142E1706900F0A2FB0121484629
:10535000736908AA9847C8E744110020701D00200F
:1053600048840010181D0020FD250020681B002027
:10537000FF250020F0840010D54400106C8400103C
:10538000237A0F2B00D9FEE6D44A9446D44A6344CC
:105390001B791278934234D3511C994200DAF2E619
:1053A000D04D9B1A5B01ED18686900F071FB01217B
:1053B00048466B6908AA9847002800D057E6602243
:1053C000150023791D401A4200D0DCE663790A3BC0
:1053D000012B00D9D7E600F05BFB63790A2B00D1E3
:1053E00050E1484608A900F0D5FA40E6BE4B7601E8
:1053F0001B689E19002A00D1E8E0002E00D1C2E609
:10540000A1E7B94A5B011568ED18002D00D1BAE695
:10541000CAE7B24BA6795B789E42E2D0AF4B5B788D
:10542000002B00D066E1AD4B5E70002E00D151E143
:10543000701EC0B2FFF79AFA002800D146E1437807
:105440000493022B00D041E10121C279070093119E
:1054500052110B400A4012015B0113439F4A2F3146
:10546000127809378A4313439C4A1370C3788278B1
:105470001B021343C31802939B4B9846029BBB42EB
:1054800000D808E101227B7800920B2B04D1FB7835
:1054900000933B78FF187B78042B00D016E1029B29
:1054A0000026DB1B9BB203938D4B1D7800230193D9
:1054B0001BE0424612687301D518002D00D105E1AA
:1054C00039004846039A2B6998470590082803D964
:1054D000039A824200D3E1E0814B01361D78F6B297
:1054E0006B1C01969E4200DDF0E0B542E1D8019BC5
:1054F0005D1B7C4B6D019C466544E1E7774B06AA3A
:105500005B78023213704846012308A900F05AFA6A
:10551000ADE5E088030AC0B20F2B00D933E673492A
:105520009A008A58974608A800F0B8FA4846A17928
:10553000FFF7AEFB0222694B1B781343674A1370D7
:1055400095E5E388012B00D01DE60822634B1B780C
:105550009343624A137044E70220604B197806AB0C
:105560009A1C8B068908DB0F01400B4313804846C9
:10557000022308A900F026FA79E5E388012B00D080
:1055800001E60822554B1B781343E2E7237A0F2BE1
:1055900000D9F8E5514A9446514A63441B79127880
:1055A000934228D2504A5B011568ED18002D00D1B6
:1055B000E9E5686900F06CFA012148466B6908AAC0
:1055C000984792E60026002A00D0DCE502226379A3
:1055D00098469343012B17D04346002B00D0D2E5C9
:1055E0003E4B06AA9C466544EF1930373B790232A0
:1055F0009B07DB0FBAE7511C994200DAC3E5394D2E
:105600009B1A5B01ED18D4E7E388002B13D14346C6
:10561000012B25D0364B1878FFF700FC2F4B0222C8
:105620009C466544EF1930373B79134301223B71A7
:105630003B7913433B71002E00D118E5706900F0EF
:1056400027FA736908AA012148469847002000F00C
:105650001FFA3523214AD35CDB0700D507E5C0E6F6
:10566000234B1878FFF7F6FB1C4B02229C4665443F
:10567000EF1930373B79934342463B713B79934373
:105680003B71D8E706AB9A1C4846012308A9157060
:1056900000F098F9EBE4FFF747FCA2E6009B012B32
:1056A00000D184E0009B002B70D00023B97805E086
:1056B00016710133009ADBB2934267D207485A1839
:1056C0008446D2B262441079FF28F1D00023034A05
:1056D000537058E5FFF72AFC83E6C046181D0020EA
:1056E000FD250020F0840010681B00209484001029
:1056F0004411002000214846FFF7D4FA4846FFF73E
:1057000077FB434B434D9B7843490093002700238D
:1057100088462A7810E0424612687B01944663442A
:10572000002B21D0DB68484698472A780137FFB222
:10573000511C3B008F4207DCBA42ECD89B1A374A17
:105740005B0194466344EDE7542200213048FDF7A5
:1057500083F82F4B1022FF21181DFDF77DF8202222
:10576000FF212F48FDF778F8294B009A9A705AE6E6
:10577000FEF7ACFE021E00D105E5D37891781B023E
:105780000B43484608A900F01DF9AEE5059D33001E
:105790002A003900224800F0F1FEAC461D4B019A68
:1057A0001B7867440133934200DB67E68EE71D4BAD
:1057B0002A699A4200D078E7049B009375E7FFF7C7
:1057C000AFFB021E00D1DEE44846137808A900F0C2
:1057D000F9F88AE52189FFF7CDF8021EF4D1D2E469
:1057E000022B0FD0FFF79EFB021EC6D1CBE4FFF7C2
:1057F000B9F8021E00D1C6E41223484608A900F0F9
:10580000E1F872E5FFF7B2F8021EB6D1BBE4C0467C
:10581000181D0020FD250020681B0020F0840010CA
:105820002C1D0020395E0010F8B557464E46DE4666
:1058300045460C00E0B516001F00002A3CD070233E
:1058400098461E4B00259B461D4B9A461AE05B4628
:105850001B78200099465346997800F053FE0028A3
:105860001CD021004846FFF739FA002816D0A3784B
:10587000DA09012A19D00A9A013513702378E4183D
:10588000B54219DA6378052B08D1E3789B079B0FA3
:10589000BB4203D14246A3781A42D8D000203CBC78
:1058A00090469946A246AB46F8BD0B9A0135137057
:1058B0002378E418B542E5DB0120F0E7441100202D
:1058C000181D0020702270B58B780C001A4201D090
:1058D000002070BD064B20001D78064B997800F023
:1058E00011FE0028F4D021002800FFF7F7F9F0E7B7
:1058F00044110020181D00200B007F20064A18408C
:1059000010B5DB09116834334200D018034B181866
:1059100000F0B4FD10BDC0466C1D0020181D002015
:105920000B007F20064A184010B5DB09116834339C
:105930004200D018034B181800F0C8FD10BDC04637
:105940006C1D0020181D002070B57F240C406000E5
:105950000E4CCD0924186419303425790020ED0748
:1059600000D570BD01262579094835430078257199
:10597000FFF742FA0028F4D10122237993432371DF
:105980002379033293432371EBE7C046181D0020AF
:105990004411002070B50A4E0500082230000C00AA
:1059A000FCF760FF002161560023C943C90F28009E
:1059B000F3600022C901B360FFF7C6FF70BDC046A7
:1059C000F81C0020F8B5CE4647469046294E80B5D3
:1059D0008146082230000D001F00FCF743FF4346BC
:1059E000B3600023F381EC79AB7924021C43231CC0
:1059F000BC4200D93B1C9FB2B381002C12D0002FB7
:105A00001ED04346002B32D03B1C402F1ED89FB2E5
:105A100033787F2B1FD80021174A3B004846FFF7F9
:105A200093FF09E0002169560023C943C90F0022F2
:105A30004846C901FFF788FF0CBC90469946F8BD5F
:105A400033787F2B10D980210022E6E740239FB2D4
:105A500033787F2BDFD9084C3A0041462000FCF711
:105A600001FF80212200D8E700210022D5E7002095
:105A7000E2E7C046F81C0020B81C002010B5142234
:105A800000210248FCF7E8FE10BDC046F81C0020CB
:105A9000014B18617047C046F81C002010B5054C3A
:105AA000010008222000FCF7DDFE0023A360E36074
:105AB00010BDC046F81C0020F8B5394C1D002378F5
:105AC0000600DA09C9098A4210D00020002D00D052
:105AD000F8BD21003000FFF7F3F82369002B41D017
